:020000040020DA
:10456800044B1B884FEA1323012203200DF6B8FAE7
:1045780011F653B98A4D200000F096F80DF650F860
:1045880000F06CF900F09BF9002801D00DF69CBDF5
:104598000DF6E1BD80F86E60284600F05FF900F086
:1045A8008EF9002801D00DF6F4BD0DF622BE0000EC
:1045B80010B500F0BCF904460AF684BE0BF659FCA7
:1045C80000F0C3F90AF6ECBE00F0FDB944F6D6F8DF
:1045D80000F037FA0CF62EBB03B4064F4FF4481818
:1045E8000549086810B103BC28F678BA03BC28F658
:1045F80090BA00BFFC102000100E200002490720CE
:10460800087600F089BA00004031200018B5254B23
:10461800421AC3F800D0009B121F23F4784303F515
:10462800704323F0404343F0805303F10043009369
:10463800884202D843F4806001E023F48060C0F32C
:104648008021C1F1010161F3DB60C0F3C06161F356
:104658005D70C2F3093161F30900C2F34A0161F3E5
:104668001A40009018BD38B5024621F0010022F02A
:1046780001052946FFF7CAFF0A4C009069462846FB
:10468800626828F6A1F86068401C606038BD13B500
:10469800044C01A9626828F697F86068401C6060BD
:1046A8001CBD0000784D20002DE9F0410D46044660
:1046B80016461F460821284644F687F83B463246E8
:1046C80029462046BDE8F0410AF67EBD38B50546C4
:1046D80026A104200AF6B0F8FF20287069460420B5
:1046E80026F690FA694602200AF6A6F8002408E0A1
:1046F800285D694626F686FA694602200AF69CF87D
:10470800641C6878801CA042F2D838BD70B5054694
:104718001848006800281DD0174C0020E070F720CA
:10472800A0709220207101206071E21DF021501CC0
:1047380026F6A3FC0646A071062101EBC0006070B6
:104748004DB1012D01D0022D03D12946204625F671
:10475800F9F9304670BD2046FFF7B8FFF9E7AFF228
:1047680053000649C1F82C017047000040242A2351
:10477800000000004C2D2000CC3E2000B02B200073
:1047880070B504460D4610460FF687F905F000414E
:1047980004F00202114316D114F02C0F13D02C4050
:1047A800044014F00C0F0ED1A1060CD540060AD512
:1047B8000BF6EAFB05F04001084302D04FF0004039
:1047C80070BD024870BD002070BD0000050000806B
:1047D80010B51BF67BFC08B11AF601FE0021BDE8F6
:1047E80010404FF49662052012F626BB494800682F
:1047F80090F870007047102900D910210A46014628
:10480800454843F6BBBF102900D910210A46014686
:104818004148103043F6B2BF4048006800F020001D
:1048280070473E48016821F02001016070473B480D
:10483800016841F02001016070473848006800F0C5
:10484800400070473548016821F040010160704719
:104858003248016841F04001016070472D48006806
:10486800417C21B1C17A11B1052181701FE0017B22
:10487800490705D4817C490702D4012181700FE0E2
:104888000178017C827A042907DC042A05DC244BA0
:1048980001EB81011944895C81708178012904D177
:1048A800817C21F00401817404E0052902D11021E2
:1048B800194802E01848102110300DF6CEB870B52E
:1048C800012400F0AEF820B106200CF63EFB0020D3
:1048D80070BD104D28688078052811D3FFF7ADFF0B
:1048E80012E0002403200CF630FB2968002081F830
:1048F80070000C48016809B104208847204670BD43
:10490800012804D9FFF788FF0028F7D0E9E70DF65A
:1049180082FBF9E7AC062000CC4D2000B006200051
:1049280040A30400B406200013494860704710B53E
:104938000446C0783C2803D10F48406800B180473E
:10494800204610BD0C49086070470B4800680028D5
:1049580000D0004770470948704710B50146062245
:10496800064843F60BFF06220449054843F606FFAE
:1049780004490120087010BD804D200078062000F1
:10498800BC0D20003906200030B5DDE9034588421A
:1049980015D8022813D34FF4486081420FD8B2F5D6
:1049A800FA7F0CD2521C5143B1EB830F07DA0A2B62
:1049B80005D3834203D8AC4201D8012030BD002082
:1049C80030BD0720704707207047000010B50A4C1B
:1049D800207800280ED10948FCF5CCF80848094988
:1049E8000068C8600848FCF5CCF80848FCF5C5F82C
:1049F8000120207010BD0000884D20009312000097
:104A0800200420008C17200021120000ED11000066
:104A18000148007870470000894D2000124908704D
:104A2800704712481249006809780278012A01D1B2
:104A3800407B00E0C07C884201D2062070470020FD
:104A480070470A480068017800F1E902012901D19C
:104A5800407B00E0C07C102804D2C0F11001104453
:104A680043F6B3BE70470000A4062000AC06200041
:104A78008A4D20007FB54FF44812D2F8C000C00715
:104A880049D09648916A006809074FF0000501D59A
:104A9800002035E0116A814203D1002025F633FF5A
:104AA80030E08F490968081A116901F00F010229DD
:104AB8000ED1D1686422491C5143A1FB000201FBBD
:104AC800052100234FF4166243F60AFE044616E059
:104AD8008449864C09682468A1FB000201FB052172
:104AE800814A2B461268624343F6FAFD040006D059
:104AF80002A9204625F613FE02A825F6BEFE20468A
:104B080022F61EFE4FF4F040CDE900050146784834
:104B18000160019941607FBD10B5764828F632FCE6
:104B280076497548486110BD7548007808B101207C
:104B380070470320704710B57148007800280FD1DE
:104B48003BF68AFA00280BD06E480068400703D568
:104B5800BDE8104028F668BDBDE8104026F6BCB890
:104B680010BD2DE9F04105460024FBF517FD8046F0
:104B7800FBF517FD4FF44810016901F00F010229F8
:104B880021D05F4B604E614945B91A785ABB604FD6
:104B980032683F783A440F68BA4224D25D4A1468B2
:104BA800012C09D15C4C5D4F24683F683C440F6878
:104BB800BC4208D8022414600968012231601A70C6
:104BC8000021C16104E04046BDE8F041FBF5ECBCC2
:104BD800C1690129FCD1444909684161C2610124C4
:104BE80081690029FCD14046FBF5DEFC002D07D188
:104BF800002C05D0BDE8F04140F2DC5025F655BF49
:104C0800BDE8F0812DE9F047FBF5C8FC8146FBF5CE
:104C1800C8FC4FF4481CDCF81000394B00F00F00BA
:104C28000022022801D11A7053E01878002850D0C9
:104C3800DCF81800012805D1DCF81800012801D19A
:104C48001A7043E0DCF81800012842D9DCF810009B
:104C580000F00F0002283CD02E4C264F2068DFF8C9
:104C6800B0803F1F022805D13A7003202060012040
:104C780088F80000DCF81810294E387846F820101B
:104C8800401CC0B20A21B0FBF1F501FB15003870D9
:104C9800CCF81C201A702068032806D13878A8B9E7
:104CA8002820226088F8000000E078B90D4B002029
:104CB8001A6056F820201C68401C22441A600A28F2
:104CC800F7DB501DB0FBF1F0186002E001203BF665
:104CD8000DFA4846BDE8F047FBF566BCDC0C200041
:104CE800E40C2000EC102000E0102000F810200058
:104CF80000E100E0904D20007D4A2000A82220001D
:104D0800DD102000BC0C2000E4102000C41020009E
:104D1800DC102000E8102000F0102000F410200023
:104D2800EC4D200070B50C461D4600230E4910E0DE
:104D380082420DD1B1F805202046A24200D8104683
:104D480082B2D1F8011028461DF676FC2B1903E033
:104D5800C91D0A78FE2AEBD1184670BDAFF23B0098
:104D68000249086070470000A84D2000180A20007A
:104D7800000000000000000000000000000000002B
:104D8800000007100000000000000000314B200068
:104D9800000000000000000000000000000000000B
:104DA800BA144E20001800BB2C4E20004001BC6CE9
:104DB8004F20003000BD8A4D20000200FE00000098
:104DC80000000000000000010000000000000000DA
:104DD80000000000000000000000000000000000CB
:104DE80000000000000000000000000000000000BB
:104DF80000000000000000000000000000000000AB
:104E0800000000000000000000000000000000009A
:104E1800000000000000000000000000000000008A
:104E2800000000000000000000000000000000007A
:104E3800000000000000000000000000000000006A
:104E4800000000000000000000000000000000005A
:104E5800000000000000000000000000000000004A
:104E6800000000000000000000000000000000003A
:104E7800000000000000000000000000000000002A
:104E8800000000000000000000000000000000001A
:104E9800000000000000000000000000000000000A
:104EA80000000000000000000000000000000000FA
:104EB80000000000000000000000000000000000EA
:104EC80000000000000000000000000000000000DA
:104ED80000000000000000000000000000000000CA
:104EE80000000000000000000000000000000000BA
:104EF80000000000000000000000000000000000AA
:104F08000000000000000000000000000000000099
:104F18000000000000000000000000000000000089
:104F28000000000000000000000000000000000079
:104F38000000000000000000000000000000000069
:104F48000000000000000000000000000000000059
:104F58000000000000000000000000000000000049
:104F68000000000000000000000000000000000039
:104F78000000000000000000000000000000000029
:104F88000000000000000000000000000000000019
:104F980000000000000000000000000010B52248DA
:104FA800224943F612FC00F0C1F82149012008709B
:104FB800204800210170204940F6037008601F490D
:104FC80048F2305008601E4908604FF44810C16F1D
:104FD80021F40031C1674FF46414206CC0070FD06E
:104FE800002025F61CFE1748016821F080010160A9
:104FF800206C20F0030020644FF0320025F655FDA8
:10500800FFF7ADFB00F014F910490F48086011498B
:105018000F480860114910480860114902200860CB
:10502800BDE81040FFF79ABECC4D2000D00100002B
:105038005C452000F8152000881120002011200070
:1050480050112000E000600005462000384520008F
:105058009C4F20005C0C2000894720000C07200092
:10506800E8102000034802498A30FFF7FCBA000024
:1050780069452000935701000348024900F25E2069
:10508800FFF7F1BA81452000C71301000348024920
:105098004A30FFF7E8BA0000D9472000E3E40000EF
:1050A800054804495C30FFF7DEBA054803492E304D
:1050B800FFF7D9BA89452000712001009D452000DD
:1050C8006321010004490548FFF7CDBA05480449A2
:1050D8002830FFF7C8BA0000B9452000C9F200001F
:1050E800C54520007DF3000006490748FFF7BBBA15
:1050F80006490748FFF7B7BA07480649801CFFF773
:10510800B2BA000091492000A5100400CB49200044
:1051180011820200D1452000338202000149024871
:10512800FFF7A1BAD5492000C512000010B500F05C
:1051380010F827490870C0B2012809D1254800682D
:105148000121B1EB106F03D0BDE8104029F6F6BD80
:1051580010BD2DE9F0414FF480752C460F21012038
:105168001AF694F90746AE00002332460F210120B3
:105178001AF6EAF8641EFDD20F2101201AF60BFA7E
:10518800044600233A460F2101201AF6DDF814B12F
:105198000020BDE8F0810E2101201AF677F90446B7
:1051A800002332460E2101201AF6CEF86D1EFDD2DC
:1051B8000E2101201AF6EFF90546002322460E219A
:1051C80001201AF6C1F80DB10120E2E70220E0E75C
:1051D800894D2000A04F2000034802491430FFF7F2
:1051E80042BA0000D5452000250C010003480249B9
:1051F8003830FFF738BA0000E145200099CA0200AC
:1052080005490648FFF72FBA05490648FFF72BBAA4
:1052180005490648FFF727BA3F4B20001DCA020080
:105228006B4B2000F50004000D4C200071010400B8
:1052380010B5FFF717FFFFF71FFFFFF727FFFFF76F
:105248002FFFFFF732FFFFF73DFFFFF73FFFFFF7A5
:105258004BFFFFF74DFFFFF74FFFFFF75FFFFFF72C
:10526800BBFFFFF7C3FFFFF7CBFFFFF7CDFFBDE89D
:085278001040FFF7CDBF00005C
:0400000500000000F7
:00000001FF
